S01D0000526F626F742061726D2061746D65676120323536302E7372656325
S113000071C00000D3C000007FC000007DC00000AC
S11300107BC0000079C0000077C0000075C00000FC
S113002073C0000071C00000F4C000006DC0000087
S11300306BC0000069C0000067C0000065C000001C
S113004063C0000061C000005FC000005DC000002C
S11300505BC0000059C0000057C0000055C000003C
S113006053C0000051C000004FC000004DC000004C
S11300704BC0000049C0000047C0000045C000005C
S113008043C0000041C000003FC000003DC000006C
S11300903BC0000039C0000037C0000035C000007C
S11300A033C0000031C000002FC000002DC000008C
S11300B02BC0000029C0000027C0000025C000009C
S11300C023C0000021C000001FC000001DC00000AC
S11300D01BC0000019C0000017C0000015C00000BC
S11300E013C0000011241FBECFEFD1E2DEBFCDBF8D
S11300F000E00CBF22E0A0E0B2E001C01D92A230FB
S1130100B207E1F7ADD0E2C07BCFFC0181E090E023
S113011091838083978786878EEC9FEF938782876E
S113012082E390E0918780871582148284ED9EEFAC
S1130130918B808B08951092040111B88FEF84B9CC
S113014091E09DBB8093690080936A0080936C006A
S113015082E0809368000895FC0117821682089556
S11301608091000290910102F7CFFC01808191817E
S1130170019711F42C9A01C02C98868597858130BB
S1130180910511F4289A03C0892B09F428988481D5
S1130190958120853185821793072CF42285338538
S11301A02817390714F01182108208951F920F92B4
S11301B00FB60F9211240BB60F928F939F93EF9368
S11301C0FF93F894009B0EC0E0910002F0910102AD
S11301D08481958101969583848381E090E0938363
S11301E082830BC0E0910002F09101028481958129
S11301F0019795838483138212827894FF91EF91FF
S11302009F918F910F900BBE0F900FBE0F901F9078
S113021018951F920F920FB60F9211240BB60F92DE
S11302208F939F93EF93FF93F894E0910002F091E2
S1130230010286819781019719F41782168204C0FE
S113024081E090E0978386837894FF91EF919F916A
S11302508F910F900BBE0F900FBE0F901F901895AB
S1130260CF93DF93CDB7DEB762970FB6F894DEBFB6
S11302700FBECDBFCE010196909301028093000280
S1130280F89459DF6DDF80910002909101023DDF07
S1130290E0910002F091010282E390E0918780876F
S11302A08EEC9FEF938782871786168681E090E015
S11302B091838083809100029091010256DF7894AB
S11302C0809100029091010250DFFACFF894FFCFA1
S9030000FC
