S01D0000526F626F742061726D2061746D65676120323536302E7372656325
S113000071C00000DFC000007FC000007DC00000A0
S11300107BC0000079C0000077C0000075C00000FC
S113002073C0000071C0000000C100006DC000007A
S11300306BC0000069C0000067C0000065C000001C
S113004063C0000061C000005FC000005DC000002C
S11300505BC0000059C0000057C0000055C000003C
S113006053C0000051C000004FC000004DC000004C
S11300704BC0000049C0000047C0000045C000005C
S113008043C0000041C000003FC000003DC000006C
S11300903BC0000039C0000037C0000035C000007C
S11300A033C0000031C000002FC000002DC000008C
S11300B02BC0000029C0000027C0000025C000009C
S11300C023C0000021C000001FC000001DC00000AC
S11300D01BC0000019C0000017C0000015C00000BC
S11300E013C0000011241FBECFEFD1E2DEBFCDBF8D
S11300F000E00CBF22E0A0E0B2E001C01D92A230FB
S1130100B207E1F7D6D0F4C07BCFFC0181E090E0E8
S1130110918380831786168688E19CEF9387828774
S113012088EE93E0918780871582148284ED9EEF98
S1130130918B808B0895109204018EE18AB980EF2F
S11301408DB911B88FEF84B98DBB8093690080930A
S11301506A0080936C0082E0809368000895FC013B
S11301601782168208958091000290910102F7CFC0
S1130170FC0180819181019719F480E185B901C066
S113018015B8868597858130910511F4289A04C0A5
S1130190892B11F485B185B98481958120853185B8
S11301A0821793072CF4228533852817390714F016
S11301B011821082208931898217930711F41182E8
S11301C0108208951F920F920FB60F9211240BB64E
S11301D00F928F939F93EF93FF93F894009B0EC01D
S11301E0E0910002F091010284819581019695834A
S11301F0848381E090E0938382830BC0E0910002CA
S1130200F0910102848195810197958384831382FF
S113021012827894FF91EF919F918F910F900BBE72
S11302200F900FBE0F901F9018951F920F920FB64C
S11302300F9211240BB60F928F939F93EF93FF931A
S1130240F894E0910002F091010286819781019770
S113025019F41782168204C081E090E097838683A4
S11302607894FF91EF919F918F910F900BBE0F9017
S11302700FBE0F901F9018952F9A2FEF89E698E1E3
S1130280215080409040E1F700C0000085B185B95D
S1130290EFEFF9E628E1E150F0402040E1F700C03B
S11302A000008091000290910102FC0117861686DD
S11302B05FCFCF93DF93CDB7DEB762970FB6F894D5
S11302C0DEBF0FBECDBFCE01019690930102809395
S11302D0000231DF48DF809100029091010215DFB6
S11302E07894CADF809100029091010241DFFACF35
S10702F0F894FFCFAC
S9030000FC
