:1000000071C0000082C000007FC000007DC0000001
:100010007BC0000079C0000077C0000075C0000000
:1000200073C00000A1C000006FC000006DC00000E0
:100030006BC0000069C0000067C0000065C0000020
:1000400063C0000061C000005FC000005DC0000030
:100050005BC0000059C0000057C0000055C0000040
:1000600053C0000051C000004FC000004DC0000050
:100070004BC0000049C0000047C0000045C0000060
:1000800043C0000041C000003FC000003DC0000070
:100090003BC0000039C0000037C0000035C0000080
:1000A00033C0000031C000002FC000002DC0000090
:1000B0002BC0000029C0000027C0000025C00000A0
:1000C00023C0000021C000001FC000001DC00000B0
:1000D0001BC0000019C0000017C0000015C00000C0
:1000E00013C0000011241FBECFEFD1E2DEBFCDBF91
:1000F00000E00CBF22E0A0E0B2E001C01D92A230FF
:10010000B207E1F7BCD0FDC07BCF1F920F920FB6B4
:100110000F9211240BB60F928F939F93EF93FF933F
:10012000E0910002F091010284859585019751F4D8
:100130008481958101969583848381E090E0938307
:10014000828307C08481958101979583848313827C
:100150001282FF91EF919F918F910F900BBE0F90A4
:100160000FBE0F901F9018951F920F920FB60F920F
:1001700011240BB60F928F939F93EF93FF93E0910F
:100180000002F091010286819781019719F417828C
:10019000168204C081E090E097838683FF91EF91FF
:1001A0009F918F910F900BBE0F900FBE0F901F90DD
:1001B0001895FC0181E090E0918380831786168674
:1001C0008CE99FEF9387828784E690E09187808710
:1001D000158214820895109204018EE18AB980EF8D
:1001E0008DB98FEF84B98DBB8093690080936A00CD
:1001F00080936C0082E0809368000895FC01178270
:10020000168208958091000290910102F7CFFC01BF
:1002100080819181019719F480E185B901C015B8F9
:10022000868597858130910511F4289A04C0892B21
:1002300011F485B185B98481958120853185821736
:1002400093072CF42285338528173907BCF01182D7
:10025000108280E885B92FEF83EC99E0215080402F
:100260009040E1F700C0000015B82FEF83EC99E053
:10027000215080409040E1F700C000000895CF93E6
:10028000DF93CDB7DEB760970FB6F894DEBF0FBE31
:10029000CDBFCE01019690930102809300029BDFB7
:1002A000809100029091010284DFACDF789401E03C
:1002B00010E08091000290910102A9DF809100027C
:1002C00090910102FC0117861686A1DFFFEF23ED56
:1002D00080E3F15020408040E1F700C000008091B1
:1002E000000290910102FC011787068790DFFFEF63
:1002F00023ED80E3F15020408040E1F700C0000092
:06030000D8CFF894FFCFF6
:00000001FF
