S01D0000526F626F742061726D2061746D65676120323536302E7372656325
S113000071C0000082C000007FC000007DC00000FD
S11300107BC0000079C0000077C0000075C00000FC
S113002073C00000A9C000006FC000006DC00000D4
S11300306BC0000069C0000067C0000065C000001C
S113004063C0000061C000005FC000005DC000002C
S11300505BC0000059C0000057C0000055C000003C
S113006053C0000051C000004FC000004DC000004C
S11300704BC0000049C0000047C0000045C000005C
S113008043C0000041C000003FC000003DC000006C
S11300903BC0000039C0000037C0000035C000007C
S11300A033C0000031C000002FC000002DC000008C
S11300B02BC0000029C0000027C0000025C000009C
S11300C023C0000021C000001FC000001DC00000AC
S11300D01BC0000019C0000017C0000015C00000BC
S11300E013C0000011241FBECFEFD1E2DEBFCDBF8D
S11300F000E00CBF22E0A0E0B2E001C01D92A031FC
S1130100B207E1F7E3D007C17BCF1F920F920FB67E
S11301100F9211240BB60F928F939F93EF93FF933B
S113012080910C0290910D02019771F4E4E0F2E0E9
S11301308081918101969183808381E090E0909306
S11301400302809302020DC0E4E0F2E08081918119
S11301500197918380838FEF9FEF909303028093A5
S11301600202FF91EF919F918F910F900BBE0F9020
S11301700FBE0F901F9018951F920F920FB60F92FB
S113018011248F939F938091060290910702019707
S113019029F4109207021092060206C081E090E052
S11301A090930702809306029F918F910F900FBE48
S11301B00F901F901895109204018EE18AB980EF78
S11301C08DB98FEF84B98DBB8093690080936A00E9
S11301D080936C0082E0809368000895AF92BF9290
S11301E0CF92DF92EF92FF920F931F93CF93DF93FF
S11301F0CDB7DEB760970FB6F894DEBF0FBECDBFA4
S1130200109207021092060260960FB6F894DEBFB1
S11302100FBECDBFDF91CF911F910F91FF90EF9053
S1130220DF90CF90BF90AF900895D8CF0895AF924C
S1130230BF92CF92DF92EF92FF920F931F93CF93CF
S1130240DF93CDB7DEB760970FB6F894DEBF0FBE6D
S1130250CDBFA982BA828F87988B80E885B98981BE
S11302609A81019719F480E185B901C015B88F8589
S11302709889019719F481E085B901C015B8809176
S1130280040290910502209108023091090282171C
S113029093073CF420910A0230910B022817390786
S11302A024F0109201021092000260960FB6F894A6
S11302B0DEBF0FBECDBFDF91CF911F910F91FF9095
S11302C0EF90DF90CF90BF90AF90089574DFADDFD3
S11302D07894A0900002B0900102C0900202D090E5
S11302E00302E0900402F0900502009106021091CE
S11302F00702209108023091090240910A025091AC
S11303000B0260910C0270910D0280910E0290918B
S10D03100F028DDFDECFF894FFCF5B
S9030000FC
