S01D0000526F626F742061726D2061746D65676120323536302E7372656325
S113000071C0000082C000007FC000007DC00000FD
S11300107BC0000079C0000077C0000075C00000FC
S113002073C00000A3C000006FC000006DC00000DA
S11300306BC0000069C0000067C0000065C000001C
S113004063C0000061C000005FC000005DC000002C
S11300505BC0000059C0000057C0000055C000003C
S113006053C0000051C000004FC000004DC000004C
S11300704BC0000049C0000047C0000045C000005C
S113008043C0000041C000003FC000003DC000006C
S11300903BC0000039C0000037C0000035C000007C
S11300A033C0000031C000002FC000002DC000008C
S11300B02BC0000029C0000027C0000025C000009C
S11300C023C0000021C000001FC000001DC00000AC
S11300D01BC0000019C0000017C0000015C00000BC
S11300E013C0000011241FBECFEFD1E2DEBFCDBF8D
S11300F000E00CBF22E0A0E0B2E001C01D92A230FB
S1130100B207E1F799D0A1C07BCF1F920F920FB62F
S11301100F9211240BB60F928F939F93EF93FF933B
S1130120E0910002F091010284859585019751F4D4
S11301308481958101969583848381E090E0938303
S1130140828309C0848195810197958384838FEF8D
S11301509FEF93838283FF91EF919F918F910F90F3
S11301600BBE0F900FBE0F901F9018951F920F9209
S11301700FB60F9211240BB60F928F939F93EF93A8
S1130180FF93E0910002F09101028681978101972B
S113019019F41782168204C081E090E09783868365
S11301A0FF91EF919F918F910F900BBE0F900FBE17
S11301B00F901F901895109204018EE18AB980EF78
S11301C08DB98FEF84B98DBB8093690080936A00E9
S11301D080936C0082E0809368000895E0910002AF
S11301E0F091010217821682089580910002909185
S11301F00102F4CFFC0180E885B9808191810197E7
S113020019F480E185B901C015B8868597850197F1
S113021019F481E085B901C015B8848195812085E0
S11302203185821793072CF42285338528173907E3
S113023014F0118210820895BEDFD7DF7894809184
S1110240000290910102D6DFFACFF894FFCFAE
S9030000FC
